{
  "_format": "hh-sol-artifact-1",
  "contractName": "CharityPlatform",
  "sourceName": "contracts/CharityPlatform.sol",
  "abi": [
    {
      "anonymous": false,
      "inputs": [
        {
          "indexed": true,
          "internalType": "uint256",
          "name": "campaignId",
          "type": "uint256"
        },
        {
          "indexed": false,
          "internalType": "uint256",
          "name": "totalRaised",
          "type": "uint256"
        }
      ],
      "name": "CampaignCompleted",
      "type": "event"
    },
    {
      "anonymous": false,
      "inputs": [
        {
          "indexed": true,
          "internalType": "uint256",
          "name": "campaignId",
          "type": "uint256"
        },
        {
          "indexed": false,
          "internalType": "string",
          "name": "title",
          "type": "string"
        },
        {
          "indexed": false,
          "internalType": "uint256",
          "name": "goal",
          "type": "uint256"
        }
      ],
      "name": "CampaignCreated",
      "type": "event"
    },
    {
      "anonymous": false,
      "inputs": [
        {
          "indexed": true,
          "internalType": "uint256",
          "name": "campaignId",
          "type": "uint256"
        },
        {
          "indexed": true,
          "internalType": "address",
          "name": "donor",
          "type": "address"
        },
        {
          "indexed": false,
          "internalType": "uint256",
          "name": "amount",
          "type": "uint256"
        }
      ],
      "name": "DonationMade",
      "type": "event"
    },
    {
      "anonymous": false,
      "inputs": [
        {
          "indexed": true,
          "internalType": "address",
          "name": "previousOwner",
          "type": "address"
        },
        {
          "indexed": true,
          "internalType": "address",
          "name": "newOwner",
          "type": "address"
        }
      ],
      "name": "OwnershipTransferred",
      "type": "event"
    },
    {
      "inputs": [],
      "name": "campaignCount",
      "outputs": [
        {
          "internalType": "uint256",
          "name": "",
          "type": "uint256"
        }
      ],
      "stateMutability": "view",
      "type": "function"
    },
    {
      "inputs": [
        {
          "internalType": "uint256",
          "name": "",
          "type": "uint256"
        },
        {
          "internalType": "uint256",
          "name": "",
          "type": "uint256"
        }
      ],
      "name": "campaignDonations",
      "outputs": [
        {
          "internalType": "address",
          "name": "donor",
          "type": "address"
        },
        {
          "internalType": "uint256",
          "name": "amount",
          "type": "uint256"
        },
        {
          "internalType": "uint256",
          "name": "timestamp",
          "type": "uint256"
        }
      ],
      "stateMutability": "view",
      "type": "function"
    },
    {
      "inputs": [
        {
          "internalType": "uint256",
          "name": "",
          "type": "uint256"
        }
      ],
      "name": "campaigns",
      "outputs": [
        {
          "internalType": "uint256",
          "name": "id",
          "type": "uint256"
        },
        {
          "internalType": "string",
          "name": "title",
          "type": "string"
        },
        {
          "internalType": "string",
          "name": "description",
          "type": "string"
        },
        {
          "internalType": "address payable",
          "name": "beneficiary",
          "type": "address"
        },
        {
          "internalType": "uint256",
          "name": "goal",
          "type": "uint256"
        },
        {
          "internalType": "uint256",
          "name": "raised",
          "type": "uint256"
        },
        {
          "internalType": "uint256",
          "name": "deadline",
          "type": "uint256"
        },
        {
          "internalType": "bool",
          "name": "active",
          "type": "bool"
        }
      ],
      "stateMutability": "view",
      "type": "function"
    },
    {
      "inputs": [
        {
          "internalType": "string",
          "name": "_title",
          "type": "string"
        },
        {
          "internalType": "string",
          "name": "_description",
          "type": "string"
        },
        {
          "internalType": "address payable",
          "name": "_beneficiary",
          "type": "address"
        },
        {
          "internalType": "uint256",
          "name": "_goal",
          "type": "uint256"
        },
        {
          "internalType": "uint256",
          "name": "_durationInDays",
          "type": "uint256"
        }
      ],
      "name": "createCampaign",
      "outputs": [
        {
          "internalType": "uint256",
          "name": "",
          "type": "uint256"
        }
      ],
      "stateMutability": "nonpayable",
      "type": "function"
    },
    {
      "inputs": [
        {
          "internalType": "uint256",
          "name": "_campaignId",
          "type": "uint256"
        }
      ],
      "name": "donate",
      "outputs": [],
      "stateMutability": "payable",
      "type": "function"
    },
    {
      "inputs": [
        {
          "internalType": "uint256",
          "name": "_campaignId",
          "type": "uint256"
        }
      ],
      "name": "getCampaign",
      "outputs": [
        {
          "internalType": "uint256",
          "name": "id",
          "type": "uint256"
        },
        {
          "internalType": "string",
          "name": "title",
          "type": "string"
        },
        {
          "internalType": "string",
          "name": "description",
          "type": "string"
        },
        {
          "internalType": "address",
          "name": "beneficiary",
          "type": "address"
        },
        {
          "internalType": "uint256",
          "name": "goal",
          "type": "uint256"
        },
        {
          "internalType": "uint256",
          "name": "raised",
          "type": "uint256"
        },
        {
          "internalType": "uint256",
          "name": "deadline",
          "type": "uint256"
        },
        {
          "internalType": "bool",
          "name": "active",
          "type": "bool"
        }
      ],
      "stateMutability": "view",
      "type": "function"
    },
    {
      "inputs": [
        {
          "internalType": "uint256",
          "name": "_campaignId",
          "type": "uint256"
        }
      ],
      "name": "getCampaignDonations",
      "outputs": [
        {
          "components": [
            {
              "internalType": "address",
              "name": "donor",
              "type": "address"
            },
            {
              "internalType": "uint256",
              "name": "amount",
              "type": "uint256"
            },
            {
              "internalType": "uint256",
              "name": "timestamp",
              "type": "uint256"
            }
          ],
          "internalType": "struct CharityPlatform.Donation[]",
          "name": "",
          "type": "tuple[]"
        }
      ],
      "stateMutability": "view",
      "type": "function"
    },
    {
      "inputs": [
        {
          "internalType": "address",
          "name": "_user",
          "type": "address"
        }
      ],
      "name": "getUserDonations",
      "outputs": [
        {
          "internalType": "uint256[]",
          "name": "",
          "type": "uint256[]"
        }
      ],
      "stateMutability": "view",
      "type": "function"
    },
    {
      "inputs": [],
      "name": "owner",
      "outputs": [
        {
          "internalType": "address",
          "name": "",
          "type": "address"
        }
      ],
      "stateMutability": "view",
      "type": "function"
    },
    {
      "inputs": [],
      "name": "renounceOwnership",
      "outputs": [],
      "stateMutability": "nonpayable",
      "type": "function"
    },
    {
      "inputs": [
        {
          "internalType": "address",
          "name": "newOwner",
          "type": "address"
        }
      ],
      "name": "transferOwnership",
      "outputs": [],
      "stateMutability": "nonpayable",
      "type": "function"
    },
    {
      "inputs": [
        {
          "internalType": "address",
          "name": "",
          "type": "address"
        },
        {
          "internalType": "uint256",
          "name": "",
          "type": "uint256"
        }
      ],
      "name": "userDonations",
      "outputs": [
        {
          "internalType": "uint256",
          "name": "",
          "type": "uint256"
        }
      ],
      "stateMutability": "view",
      "type": "function"
    },
    {
      "inputs": [
        {
          "internalType": "uint256",
          "name": "_campaignId",
          "type": "uint256"
        }
      ],
      "name": "withdrawFunds",
      "outputs": [],
      "stateMutability": "nonpayable",
      "type": "function"
    }
  ],
  "bytecode": "0x60806040523480156200001157600080fd5b5062000032620000266200003f60201b60201c565b6200004760201b60201c565b600180819055506200010b565b600033905090565b60008060009054906101000a900473ffffffffffffffffffffffffffffffffffffffff169050816000806101000a81548173ffffffffffffffffffffffffffffffffffffffff021916908373ffffffffffffffffffffffffffffffffffffffff1602179055508173ffffffffffffffffffffffffffffffffffffffff168173ffffffffffffffffffffffffffffffffffffffff167f8be0079c531659141344cd1fd0a4f28419497f9722a3daafe3b4186f6b6457e060405160405180910390a35050565b61254e806200011b6000396000f3fe6080604052600436106100c25760003560e01c8063715018a61161007f5780638da5cb5b116100595780638da5cb5b146102b05780639304d124146102db578063f14faf6f14610318578063f2fde38b14610334576100c2565b8063715018a6146102315780637274e30d14610248578063732435b214610273576100c2565b8063141961bc146100c7578063155dd5ee1461010b5780634933e631146101345780635167642f146101715780635598f8cc146101ae57806370879ff7146101f2575b600080fd5b3480156100d357600080fd5b506100ee60048036038101906100e99190611352565b61035d565b60405161010298979695949392919061147a565b60405180910390f35b34801561011757600080fd5b50610132600480360381019061012d9190611352565b6104e2565b005b34801561014057600080fd5b5061015b60048036038101906101569190611544565b610748565b6040516101689190611584565b60405180910390f35b34801561017d57600080fd5b5061019860048036038101906101939190611352565b610779565b6040516101a591906116ae565b60405180910390f35b3480156101ba57600080fd5b506101d560048036038101906101d09190611352565b610855565b6040516101e99897969594939291906116df565b60405180910390f35b3480156101fe57600080fd5b506102196004803603810190610214919061176b565b6109ff565b604051610228939291906117ab565b60405180910390f35b34801561023d57600080fd5b50610246610a66565b005b34801561025457600080fd5b5061025d610a7a565b60405161026a9190611584565b60405180910390f35b34801561027f57600080fd5b5061029a600480360381019061029591906117e2565b610a80565b6040516102a791906118be565b60405180910390f35b3480156102bc57600080fd5b506102c5610b17565b6040516102d291906118e0565b60405180910390f35b3480156102e757600080fd5b5061030260048036038101906102fd9190611a5c565b610b40565b60405161030f9190611584565b60405180910390f35b610332600480360381019061032d9190611352565b610dda565b005b34801561034057600080fd5b5061035b600480360381019061035691906117e2565b6110e3565b005b600360205280600052604060002060009150905080600001549080600101805461038690611b3e565b80601f01602080910402602001604051908101604052809291908181526020018280546103b290611b3e565b80156103ff5780601f106103d4576101008083540402835291602001916103ff565b820191906000526020600020905b8154815290600101906020018083116103e257829003601f168201915b50505050509080600201805461041490611b3e565b80601f016020809104026020016040519081016040528092919081815260200182805461044090611b3e565b801561048d5780601f106104625761010080835404028352916020019161048d565b820191906000526020600020905b81548152906001019060200180831161047057829003601f168201915b5050505050908060030160009054906101000a900473ffffffffffffffffffffffffffffffffffffffff16908060040154908060050154908060060154908060070160009054906101000a900460ff16905088565b6104ea611166565b60006003600083815260200190815260200160002090508060030160009054906101000a900473ffffffffffffffffffffffffffffffffffffffff1673ffffffffffffffffffffffffffffffffffffffff163373ffffffffffffffffffffffffffffffffffffffff1614610593576040517f08c379a000000000000000000000000000000000000000000000000000000000815260040161058a90611bbb565b60405180910390fd5b8060070160009054906101000a900460ff1615806105b45750806006015442115b6105f3576040517f08c379a00000000000000000000000000000000000000000000000000000000081526004016105ea90611c27565b60405180910390fd5b600081600501541161063a576040517f08c379a000000000000000000000000000000000000000000000000000000000815260040161063190611c93565b60405180910390fd5b6000816005015490506000826005018190555060008260070160006101000a81548160ff02191690831515021790555060008260030160009054906101000a900473ffffffffffffffffffffffffffffffffffffffff1673ffffffffffffffffffffffffffffffffffffffff16826040516106b490611ce4565b60006040518083038185875af1925050503d80600081146106f1576040519150601f19603f3d011682016040523d82523d6000602084013e6106f6565b606091505b505090508061073a576040517f08c379a000000000000000000000000000000000000000000000000000000000815260040161073190611d45565b60405180910390fd5b5050506107456111b5565b50565b6005602052816000526040600020818154811061076457600080fd5b90600052602060002001600091509150505481565b606060046000838152602001908152602001600020805480602002602001604051908101604052809291908181526020016000905b8282101561084a57838290600052602060002090600302016040518060600160405290816000820160009054906101000a900473ffffffffffffffffffffffffffffffffffffffff1673ffffffffffffffffffffffffffffffffffffffff1673ffffffffffffffffffffffffffffffffffffffff16815260200160018201548152602001600282015481525050815260200190600101906107ae565b505050509050919050565b6000606080600080600080600080600360008b81526020019081526020016000209050806000015481600101826002018360030160009054906101000a900473ffffffffffffffffffffffffffffffffffffffff168460040154856005015486600601548760070160009054906101000a900460ff168680546108d790611b3e565b80601f016020809104026020016040519081016040528092919081815260200182805461090390611b3e565b80156109505780601f1061092557610100808354040283529160200191610950565b820191906000526020600020905b81548152906001019060200180831161093357829003601f168201915b5050505050965085805461096390611b3e565b80601f016020809104026020016040519081016040528092919081815260200182805461098f90611b3e565b80156109dc5780601f106109b1576101008083540402835291602001916109dc565b820191906000526020600020905b8154815290600101906020018083116109bf57829003601f168201915b505050505095509850985098509850985098509850985050919395975091939597565b60046020528160005260406000208181548110610a1b57600080fd5b9060005260206000209060030201600091509150508060000160009054906101000a900473ffffffffffffffffffffffffffffffffffffffff16908060010154908060020154905083565b610a6e6111be565b610a78600061123c565b565b60025481565b6060600560008373ffffffffffffffffffffffffffffffffffffffff1673ffffffffffffffffffffffffffffffffffffffff168152602001908152602001600020805480602002602001604051908101604052809291908181526020018280548015610b0b57602002820191906000526020600020905b815481526020019060010190808311610af7575b50505050509050919050565b60008060009054906101000a900473ffffffffffffffffffffffffffffffffffffffff16905090565b60008073ffffffffffffffffffffffffffffffffffffffff168473ffffffffffffffffffffffffffffffffffffffff1603610bb0576040517f08c379a0000000000000000000000000000000000000000000000000000000008152600401610ba790611db1565b60405180910390fd5b60008311610bf3576040517f08c379a0000000000000000000000000000000000000000000000000000000008152600401610bea90611e1d565b60405180910390fd5b60008211610c36576040517f08c379a0000000000000000000000000000000000000000000000000000000008152600401610c2d90611e89565b60405180910390fd5b60026000815480929190610c4990611ed8565b9190505550600060025490506040518061010001604052808281526020018881526020018781526020018673ffffffffffffffffffffffffffffffffffffffff168152602001858152602001600081526020016201518085610cab9190611f20565b42610cb69190611f62565b81526020016001151581525060036000838152602001908152602001600020600082015181600001556020820151816001019081610cf49190612142565b506040820151816002019081610d0a9190612142565b5060608201518160030160006101000a81548173ffffffffffffffffffffffffffffffffffffffff021916908373ffffffffffffffffffffffffffffffffffffffff1602179055506080820151816004015560a0820151816005015560c0820151816006015560e08201518160070160006101000a81548160ff021916908315150217905550905050807f2170fee8e65b01596ec56f4b4df98e903e2baf55bb74a163480d31de5ce830258886604051610dc5929190612214565b60405180910390a28091505095945050505050565b610de2611166565b60006003600083815260200190815260200160002090508060070160009054906101000a900460ff16610e4a576040517f08c379a0000000000000000000000000000000000000000000000000000000008152600401610e4190612290565b60405180910390fd5b8060060154421115610e91576040517f08c379a0000000000000000000000000000000000000000000000000000000008152600401610e88906122fc565b60405180910390fd5b60003411610ed4576040517f08c379a0000000000000000000000000000000000000000000000000000000008152600401610ecb9061238e565b60405180910390fd5b34816005016000828254610ee89190611f62565b925050819055506004600083815260200190815260200160002060405180606001604052803373ffffffffffffffffffffffffffffffffffffffff16815260200134815260200142815250908060018154018082558091505060019003906000526020600020906003020160009091909190915060008201518160000160006101000a81548173ffffffffffffffffffffffffffffffffffffffff021916908373ffffffffffffffffffffffffffffffffffffffff16021790555060208201518160010155604082015181600201555050600560003373ffffffffffffffffffffffffffffffffffffffff1673ffffffffffffffffffffffffffffffffffffffff1681526020019081526020016000208290806001815401808255809150506001900390600052602060002001600090919091909150553373ffffffffffffffffffffffffffffffffffffffff16827fe555da28bdb778f65d22794d88927ebaeca03f7de9d1b7d39245bc8fb5ca078a346040516110669190611584565b60405180910390a380600401548160050154106110d75760008160070160006101000a81548160ff021916908315150217905550817f562099c771af1034e0fa4d272eeb12a622c0e7b284ff68212cc5ddd2c1b77d3482600501546040516110ce9190611584565b60405180910390a25b506110e06111b5565b50565b6110eb6111be565b600073ffffffffffffffffffffffffffffffffffffffff168173ffffffffffffffffffffffffffffffffffffffff160361115a576040517f08c379a000000000000000000000000000000000000000000000000000000000815260040161115190612420565b60405180910390fd5b6111638161123c565b50565b6002600154036111ab576040517f08c379a00000000000000000000000000000000000000000000000000000000081526004016111a29061248c565b60405180910390fd5b6002600181905550565b60018081905550565b6111c6611300565b73ffffffffffffffffffffffffffffffffffffffff166111e4610b17565b73ffffffffffffffffffffffffffffffffffffffff161461123a576040517f08c379a0000000000000000000000000000000000000000000000000000000008152600401611231906124f8565b60405180910390fd5b565b60008060009054906101000a900473ffffffffffffffffffffffffffffffffffffffff169050816000806101000a81548173ffffffffffffffffffffffffffffffffffffffff021916908373ffffffffffffffffffffffffffffffffffffffff1602179055508173ffffffffffffffffffffffffffffffffffffffff168173ffffffffffffffffffffffffffffffffffffffff167f8be0079c531659141344cd1fd0a4f28419497f9722a3daafe3b4186f6b6457e060405160405180910390a35050565b600033905090565b6000604051905090565b600080fd5b600080fd5b6000819050919050565b61132f8161131c565b811461133a57600080fd5b50565b60008135905061134c81611326565b92915050565b60006020828403121561136857611367611312565b5b60006113768482850161133d565b91505092915050565b6113888161131c565b82525050565b600081519050919050565b600082825260208201905092915050565b60005b838110156113c85780820151818401526020810190506113ad565b60008484015250505050565b6000601f19601f8301169050919050565b60006113f08261138e565b6113fa8185611399565b935061140a8185602086016113aa565b611413816113d4565b840191505092915050565b600073ffffffffffffffffffffffffffffffffffffffff82169050919050565b60006114498261141e565b9050919050565b6114598161143e565b82525050565b60008115159050919050565b6114748161145f565b82525050565b600061010082019050611490600083018b61137f565b81810360208301526114a2818a6113e5565b905081810360408301526114b681896113e5565b90506114c56060830188611450565b6114d2608083018761137f565b6114df60a083018661137f565b6114ec60c083018561137f565b6114f960e083018461146b565b9998505050505050505050565b60006115118261141e565b9050919050565b61152181611506565b811461152c57600080fd5b50565b60008135905061153e81611518565b92915050565b6000806040838503121561155b5761155a611312565b5b60006115698582860161152f565b925050602061157a8582860161133d565b9150509250929050565b6000602082019050611599600083018461137f565b92915050565b600081519050919050565b600082825260208201905092915050565b6000819050602082019050919050565b6115d481611506565b82525050565b6115e38161131c565b82525050565b6060820160008201516115ff60008501826115cb565b50602082015161161260208501826115da565b50604082015161162560408501826115da565b50505050565b600061163783836115e9565b60608301905092915050565b6000602082019050919050565b600061165b8261159f565b61166581856115aa565b9350611670836115bb565b8060005b838110156116a1578151611688888261162b565b975061169383611643565b925050600181019050611674565b5085935050505092915050565b600060208201905081810360008301526116c88184611650565b905092915050565b6116d981611506565b82525050565b6000610100820190506116f5600083018b61137f565b8181036020830152611707818a6113e5565b9050818103604083015261171b81896113e5565b905061172a60608301886116d0565b611737608083018761137f565b61174460a083018661137f565b61175160c083018561137f565b61175e60e083018461146b565b9998505050505050505050565b6000806040838503121561178257611781611312565b5b60006117908582860161133d565b92505060206117a18582860161133d565b9150509250929050565b60006060820190506117c060008301866116d0565b6117cd602083018561137f565b6117da604083018461137f565b949350505050565b6000602082840312156117f8576117f7611312565b5b60006118068482850161152f565b91505092915050565b600081519050919050565b600082825260208201905092915050565b6000819050602082019050919050565b600061184783836115da565b60208301905092915050565b6000602082019050919050565b600061186b8261180f565b611875818561181a565b93506118808361182b565b8060005b838110156118b1578151611898888261183b565b97506118a383611853565b925050600181019050611884565b5085935050505092915050565b600060208201905081810360008301526118d88184611860565b905092915050565b60006020820190506118f560008301846116d0565b92915050565b600080fd5b600080fd5b7f4e487b7100000000000000000000000000000000000000000000000000000000600052604160045260246000fd5b61193d826113d4565b810181811067ffffffffffffffff8211171561195c5761195b611905565b5b80604052505050565b600061196f611308565b905061197b8282611934565b919050565b600067ffffffffffffffff82111561199b5761199a611905565b5b6119a4826113d4565b9050602081019050919050565b82818337600083830152505050565b60006119d36119ce84611980565b611965565b9050828152602081018484840111156119ef576119ee611900565b5b6119fa8482856119b1565b509392505050565b600082601f830112611a1757611a166118fb565b5b8135611a278482602086016119c0565b91505092915050565b611a398161143e565b8114611a4457600080fd5b50565b600081359050611a5681611a30565b92915050565b600080600080600060a08688031215611a7857611a77611312565b5b600086013567ffffffffffffffff811115611a9657611a95611317565b5b611aa288828901611a02565b955050602086013567ffffffffffffffff811115611ac357611ac2611317565b5b611acf88828901611a02565b9450506040611ae088828901611a47565b9350506060611af18882890161133d565b9250506080611b028882890161133d565b9150509295509295909350565b7f4e487b7100000000000000000000000000000000000000000000000000000000600052602260045260246000fd5b60006002820490506001821680611b5657607f821691505b602082108103611b6957611b68611b0f565b5b50919050565b7f4f6e6c792062656e65666963696172792063616e207769746864726177000000600082015250565b6000611ba5601d83611399565b9150611bb082611b6f565b602082019050919050565b60006020820190508181036000830152611bd481611b98565b9050919050565b7f43616d706169676e206973207374696c6c206163746976650000000000000000600082015250565b6000611c11601883611399565b9150611c1c82611bdb565b602082019050919050565b60006020820190508181036000830152611c4081611c04565b9050919050565b7f4e6f2066756e647320746f207769746864726177000000000000000000000000600082015250565b6000611c7d601483611399565b9150611c8882611c47565b602082019050919050565b60006020820190508181036000830152611cac81611c70565b9050919050565b600081905092915050565b50565b6000611cce600083611cb3565b9150611cd982611cbe565b600082019050919050565b6000611cef82611cc1565b9150819050919050565b7f5472616e73666572206661696c65640000000000000000000000000000000000600082015250565b6000611d2f600f83611399565b9150611d3a82611cf9565b602082019050919050565b60006020820190508181036000830152611d5e81611d22565b9050919050565b7f496e76616c69642062656e656669636961727920616464726573730000000000600082015250565b6000611d9b601b83611399565b9150611da682611d65565b602082019050919050565b60006020820190508181036000830152611dca81611d8e565b9050919050565b7f476f616c206d7573742062652067726561746572207468616e20300000000000600082015250565b6000611e07601b83611399565b9150611e1282611dd1565b602082019050919050565b60006020820190508181036000830152611e3681611dfa565b9050919050565b7f4475726174696f6e206d7573742062652067726561746572207468616e203000600082015250565b6000611e73601f83611399565b9150611e7e82611e3d565b602082019050919050565b60006020820190508181036000830152611ea281611e66565b9050919050565b7f4e487b7100000000000000000000000000000000000000000000000000000000600052601160045260246000fd5b6000611ee38261131c565b91507fffffffffffffffffffffffffffffffffffffffffffffffffffffffffffffffff8203611f1557611f14611ea9565b5b600182019050919050565b6000611f2b8261131c565b9150611f368361131c565b9250828202611f448161131c565b91508282048414831517611f5b57611f5a611ea9565b5b5092915050565b6000611f6d8261131c565b9150611f788361131c565b9250828201905080821115611f9057611f8f611ea9565b5b92915050565b60008190508160005260206000209050919050565b60006020601f8301049050919050565b600082821b905092915050565b600060088302611ff87fffffffffffffffffffffffffffffffffffffffffffffffffffffffffffffffff82611fbb565b6120028683611fbb565b95508019841693508086168417925050509392505050565b6000819050919050565b600061203f61203a6120358461131c565b61201a565b61131c565b9050919050565b6000819050919050565b61205983612024565b61206d61206582612046565b848454611fc8565b825550505050565b600090565b612082612075565b61208d818484612050565b505050565b5b818110156120b1576120a660008261207a565b600181019050612093565b5050565b601f8211156120f6576120c781611f96565b6120d084611fab565b810160208510156120df578190505b6120f36120eb85611fab565b830182612092565b50505b505050565b600082821c905092915050565b6000612119600019846008026120fb565b1980831691505092915050565b60006121328383612108565b9150826002028217905092915050565b61214b8261138e565b67ffffffffffffffff81111561216457612163611905565b5b61216e8254611b3e565b6121798282856120b5565b600060209050601f8311600181146121ac576000841561219a578287015190505b6121a48582612126565b86555061220c565b601f1984166121ba86611f96565b60005b828110156121e2578489015182556001820191506020850194506020810190506121bd565b868310156121ff57848901516121fb601f891682612108565b8355505b6001600288020188555050505b505050505050565b6000604082019050818103600083015261222e81856113e5565b905061223d602083018461137f565b9392505050565b7f43616d706169676e206973206e6f742061637469766500000000000000000000600082015250565b600061227a601683611399565b915061228582612244565b602082019050919050565b600060208201905081810360008301526122a98161226d565b9050919050565b7f43616d706169676e2068617320656e6465640000000000000000000000000000600082015250565b60006122e6601283611399565b91506122f1826122b0565b602082019050919050565b60006020820190508181036000830152612315816122d9565b9050919050565b7f446f6e6174696f6e20616d6f756e74206d75737420626520677265617465722060008201527f7468616e20300000000000000000000000000000000000000000000000000000602082015250565b6000612378602683611399565b91506123838261231c565b604082019050919050565b600060208201905081810360008301526123a78161236b565b9050919050565b7f4f776e61626c653a206e6577206f776e657220697320746865207a65726f206160008201527f6464726573730000000000000000000000000000000000000000000000000000602082015250565b600061240a602683611399565b9150612415826123ae565b604082019050919050565b60006020820190508181036000830152612439816123fd565b9050919050565b7f5265656e7472616e637947756172643a207265656e7472616e742063616c6c00600082015250565b6000612476601f83611399565b915061248182612440565b602082019050919050565b600060208201905081810360008301526124a581612469565b9050919050565b7f4f776e61626c653a2063616c6c6572206973206e6f7420746865206f776e6572600082015250565b60006124e2602083611399565b91506124ed826124ac565b602082019050919050565b60006020820190508181036000830152612511816124d5565b905091905056fea26469706673582212203d41780688e30b6876745f90bb31927fc30aabcf0a7853c793ec9448d88036b664736f6c63430008110033",
  "linkReferences": {},
  "deployedLinkReferences": {}
}